{
  "_format": "hh-sol-artifact-1",
  "contractName": "Anime3",
  "sourceName": "contracts/Anime3.sol",
  "abi": [
    {
      "inputs": [],
      "stateMutability": "payable",
      "type": "constructor"
    },
    {
      "anonymous": false,
      "inputs": [
        {
          "indexed": false,
          "internalType": "string",
          "name": "animeId",
          "type": "string"
        },
        {
          "indexed": false,
          "internalType": "uint256",
          "name": "upvoteCount",
          "type": "uint256"
        },
        {
          "indexed": true,
          "internalType": "address",
          "name": "from",
          "type": "address"
        },
        {
          "indexed": false,
          "internalType": "uint256",
          "name": "timestamp",
          "type": "uint256"
        }
      ],
      "name": "newUpvote",
      "type": "event"
    },
    {
      "inputs": [
        {
          "internalType": "string",
          "name": "",
          "type": "string"
        }
      ],
      "name": "animeUpvoteMapping",
      "outputs": [
        {
          "internalType": "uint256",
          "name": "",
          "type": "uint256"
        }
      ],
      "stateMutability": "view",
      "type": "function"
    },
    {
      "inputs": [],
      "name": "getAllUpvotes",
      "outputs": [
        {
          "components": [
            {
              "internalType": "string",
              "name": "animeId",
              "type": "string"
            },
            {
              "internalType": "uint256",
              "name": "upvoteCount",
              "type": "uint256"
            },
            {
              "internalType": "address",
              "name": "upvoter",
              "type": "address"
            },
            {
              "internalType": "uint256",
              "name": "timestamp",
              "type": "uint256"
            }
          ],
          "internalType": "struct Anime3.animeUpvoteStruct[]",
          "name": "",
          "type": "tuple[]"
        }
      ],
      "stateMutability": "view",
      "type": "function"
    },
    {
      "inputs": [],
      "name": "getAllUpvotesCount",
      "outputs": [
        {
          "internalType": "uint256",
          "name": "",
          "type": "uint256"
        }
      ],
      "stateMutability": "view",
      "type": "function"
    },
    {
      "inputs": [],
      "name": "getAnimeIds",
      "outputs": [
        {
          "internalType": "string[]",
          "name": "",
          "type": "string[]"
        }
      ],
      "stateMutability": "view",
      "type": "function"
    },
    {
      "inputs": [
        {
          "internalType": "address",
          "name": "",
          "type": "address"
        }
      ],
      "name": "lastUpvoted",
      "outputs": [
        {
          "internalType": "uint256",
          "name": "",
          "type": "uint256"
        }
      ],
      "stateMutability": "view",
      "type": "function"
    },
    {
      "inputs": [
        {
          "internalType": "string",
          "name": "_animeId",
          "type": "string"
        }
      ],
      "name": "upvoteAnime",
      "outputs": [],
      "stateMutability": "nonpayable",
      "type": "function"
    }
  ],
  "bytecode": "0x6080604052620000336040518060600160405280602581526020016200132c602591396200005b60201b620005fc1760201c565b6064444262000043919062000160565b6200004f9190620001ca565b600081905550620002c0565b620000fb816040516024016200007291906200029c565b6040516020818303038152906040527f41304fac000000000000000000000000000000000000000000000000000000007bffffffffffffffffffffffffffffffffffffffffffffffffffffffff19166020820180517bffffffffffffffffffffffffffffffffffffffffffffffffffffffff8381831617835250505050620000fe60201b60201c565b50565b60008151905060006a636f6e736f6c652e6c6f679050602083016000808483855afa5050505050565b6000819050919050565b7f4e487b7100000000000000000000000000000000000000000000000000000000600052601160045260246000fd5b60006200016d8262000127565b91506200017a8362000127565b925082820190508082111562000195576200019462000131565b5b92915050565b7f4e487b7100000000000000000000000000000000000000000000000000000000600052601260045260246000fd5b6000620001d78262000127565b9150620001e48362000127565b925082620001f757620001f66200019b565b5b828206905092915050565b600081519050919050565b600082825260208201905092915050565b60005b838110156200023e57808201518184015260208101905062000221565b60008484015250505050565b6000601f19601f8301169050919050565b6000620002688262000202565b6200027481856200020d565b9350620002868185602086016200021e565b62000291816200024a565b840191505092915050565b60006020820190508181036000830152620002b881846200025b565b905092915050565b61105c80620002d06000396000f3fe608060405234801561001057600080fd5b50600436106100625760003560e01c806313d5e6c4146100675780631fd461ae146100855780635afb655c146100b5578063a0e22603146100d1578063a4ef0bcc146100ef578063bd489fb51461010d575b600080fd5b61006f61013d565b60405161007c9190610810565b60405180910390f35b61009f600480360381019061009a919061097b565b610216565b6040516100ac91906109dd565b60405180910390f35b6100cf60048036038101906100ca919061097b565b610244565b005b6100d961047f565b6040516100e691906109dd565b60405180910390f35b6100f7610489565b6040516101049190610b6d565b60405180910390f35b61012760048036038101906101229190610bbb565b6105e4565b60405161013491906109dd565b60405180910390f35b60606004805480602002602001604051908101604052809291908181526020016000905b8282101561020d57838290600052602060002001805461018090610c17565b80601f01602080910402602001604051908101604052809291908181526020018280546101ac90610c17565b80156101f95780601f106101ce576101008083540402835291602001916101f9565b820191906000526020600020905b8154815290600101906020018083116101dc57829003601f168201915b505050505081526020019060010190610161565b50505050905090565b6003818051602081018201805184825260208301602085012081835280955050505050506000915090505481565b60018060008282546102569190610c77565b92505081905550600060038260405161026f9190610ce7565b90815260200160405180910390205411156102bf5760016003826040516102969190610ce7565b908152602001604051809103902060008282546102b39190610c77565b92505081905550610319565b60016003826040516102d19190610ce7565b9081526020016040518091039020819055506004819080600181540180825580915050600190039060005260206000200160009091909190915090816103179190610eaa565b505b6005604051806080016040528083815260200160038460405161033c9190610ce7565b90815260200160405180910390205481526020013373ffffffffffffffffffffffffffffffffffffffff16815260200142815250908060018154018082558091505060019003906000526020600020906004020160009091909190915060008201518160000190816103ae9190610eaa565b506020820151816001015560408201518160020160006101000a81548173ffffffffffffffffffffffffffffffffffffffff021916908373ffffffffffffffffffffffffffffffffffffffff1602179055506060820151816003015550503373ffffffffffffffffffffffffffffffffffffffff167fefa69bf3714764eac631c72450082eb6614c17850d5c3b9d5ea8e6ac1934bdbe826003846040516104559190610ce7565b9081526020016040518091039020544260405161047493929190610fc6565b60405180910390a250565b6000600154905090565b60606005805480602002602001604051908101604052809291908181526020016000905b828210156105db57838290600052602060002090600402016040518060800160405290816000820180546104e090610c17565b80601f016020809104026020016040519081016040528092919081815260200182805461050c90610c17565b80156105595780601f1061052e57610100808354040283529160200191610559565b820191906000526020600020905b81548152906001019060200180831161053c57829003601f168201915b50505050508152602001600182015481526020016002820160009054906101000a900473ffffffffffffffffffffffffffffffffffffffff1673ffffffffffffffffffffffffffffffffffffffff1673ffffffffffffffffffffffffffffffffffffffff168152602001600382015481525050815260200190600101906104ad565b50505050905090565b60026020528060005260406000206000915090505481565b610692816040516024016106109190611004565b6040516020818303038152906040527f41304fac000000000000000000000000000000000000000000000000000000007bffffffffffffffffffffffffffffffffffffffffffffffffffffffff19166020820180517bffffffffffffffffffffffffffffffffffffffffffffffffffffffff8381831617835250505050610695565b50565b60008151905060006a636f6e736f6c652e6c6f679050602083016000808483855afa5050505050565b600081519050919050565b600082825260208201905092915050565b6000819050602082019050919050565b600081519050919050565b600082825260208201905092915050565b60005b83811015610724578082015181840152602081019050610709565b60008484015250505050565b6000601f19601f8301169050919050565b600061074c826106ea565b61075681856106f5565b9350610766818560208601610706565b61076f81610730565b840191505092915050565b60006107868383610741565b905092915050565b6000602082019050919050565b60006107a6826106be565b6107b081856106c9565b9350836020820285016107c2856106da565b8060005b858110156107fe57848403895281516107df858261077a565b94506107ea8361078e565b925060208a019950506001810190506107c6565b50829750879550505050505092915050565b6000602082019050818103600083015261082a818461079b565b905092915050565b6000604051905090565b600080fd5b600080fd5b600080fd5b600080fd5b7f4e487b7100000000000000000000000000000000000000000000000000000000600052604160045260246000fd5b61088882610730565b810181811067ffffffffffffffff821117156108a7576108a6610850565b5b80604052505050565b60006108ba610832565b90506108c6828261087f565b919050565b600067ffffffffffffffff8211156108e6576108e5610850565b5b6108ef82610730565b9050602081019050919050565b82818337600083830152505050565b600061091e610919846108cb565b6108b0565b90508281526020810184848401111561093a5761093961084b565b5b6109458482856108fc565b509392505050565b600082601f83011261096257610961610846565b5b813561097284826020860161090b565b91505092915050565b6000602082840312156109915761099061083c565b5b600082013567ffffffffffffffff8111156109af576109ae610841565b5b6109bb8482850161094d565b91505092915050565b6000819050919050565b6109d7816109c4565b82525050565b60006020820190506109f260008301846109ce565b92915050565b600081519050919050565b600082825260208201905092915050565b6000819050602082019050919050565b610a2d816109c4565b82525050565b600073ffffffffffffffffffffffffffffffffffffffff82169050919050565b6000610a5e82610a33565b9050919050565b610a6e81610a53565b82525050565b60006080830160008301518482036000860152610a918282610741565b9150506020830151610aa66020860182610a24565b506040830151610ab96040860182610a65565b506060830151610acc6060860182610a24565b508091505092915050565b6000610ae38383610a74565b905092915050565b6000602082019050919050565b6000610b03826109f8565b610b0d8185610a03565b935083602082028501610b1f85610a14565b8060005b85811015610b5b5784840389528151610b3c8582610ad7565b9450610b4783610aeb565b925060208a01995050600181019050610b23565b50829750879550505050505092915050565b60006020820190508181036000830152610b878184610af8565b905092915050565b610b9881610a53565b8114610ba357600080fd5b50565b600081359050610bb581610b8f565b92915050565b600060208284031215610bd157610bd061083c565b5b6000610bdf84828501610ba6565b91505092915050565b7f4e487b7100000000000000000000000000000000000000000000000000000000600052602260045260246000fd5b60006002820490506001821680610c2f57607f821691505b602082108103610c4257610c41610be8565b5b50919050565b7f4e487b7100000000000000000000000000000000000000000000000000000000600052601160045260246000fd5b6000610c82826109c4565b9150610c8d836109c4565b9250828201905080821115610ca557610ca4610c48565b5b92915050565b600081905092915050565b6000610cc1826106ea565b610ccb8185610cab565b9350610cdb818560208601610706565b80840191505092915050565b6000610cf38284610cb6565b915081905092915050565b60008190508160005260206000209050919050565b60006020601f8301049050919050565b600082821b905092915050565b600060088302610d607fffffffffffffffffffffffffffffffffffffffffffffffffffffffffffffffff82610d23565b610d6a8683610d23565b95508019841693508086168417925050509392505050565b6000819050919050565b6000610da7610da2610d9d846109c4565b610d82565b6109c4565b9050919050565b6000819050919050565b610dc183610d8c565b610dd5610dcd82610dae565b848454610d30565b825550505050565b600090565b610dea610ddd565b610df5818484610db8565b505050565b5b81811015610e1957610e0e600082610de2565b600181019050610dfb565b5050565b601f821115610e5e57610e2f81610cfe565b610e3884610d13565b81016020851015610e47578190505b610e5b610e5385610d13565b830182610dfa565b50505b505050565b600082821c905092915050565b6000610e8160001984600802610e63565b1980831691505092915050565b6000610e9a8383610e70565b9150826002028217905092915050565b610eb3826106ea565b67ffffffffffffffff811115610ecc57610ecb610850565b5b610ed68254610c17565b610ee1828285610e1d565b600060209050601f831160018114610f145760008415610f02578287015190505b610f0c8582610e8e565b865550610f74565b601f198416610f2286610cfe565b60005b82811015610f4a57848901518255600182019150602085019450602081019050610f25565b86831015610f675784890151610f63601f891682610e70565b8355505b6001600288020188555050505b505050505050565b600082825260208201905092915050565b6000610f98826106ea565b610fa28185610f7c565b9350610fb2818560208601610706565b610fbb81610730565b840191505092915050565b60006060820190508181036000830152610fe08186610f8d565b9050610fef60208301856109ce565b610ffc60408301846109ce565b949350505050565b6000602082019050818103600083015261101e8184610f8d565b90509291505056fea26469706673582212202a94fedca9f04f26af20240c7d4130b7b5e0fc51809060b120a7241f8c9cc93164736f6c63430008110033596f20796f2c204920616d206120636f6e747261637420616e64204920616d20736d617274",
  "linkReferences": {},
  "deployedLinkReferences": {}
}