{
  "_format": "hh-sol-artifact-1",
  "contractName": "Anime3",
  "sourceName": "contracts/Anime3.sol",
  "abi": [
    {
      "inputs": [],
      "stateMutability": "payable",
      "type": "constructor"
    },
    {
      "anonymous": false,
      "inputs": [
        {
          "indexed": false,
          "internalType": "string",
          "name": "animeId",
          "type": "string"
        },
        {
          "indexed": false,
          "internalType": "uint256",
          "name": "upvoteCount",
          "type": "uint256"
        },
        {
          "indexed": true,
          "internalType": "address",
          "name": "from",
          "type": "address"
        },
        {
          "indexed": false,
          "internalType": "uint256",
          "name": "timestamp",
          "type": "uint256"
        }
      ],
      "name": "newUpvote",
      "type": "event"
    },
    {
      "inputs": [
        {
          "internalType": "string",
          "name": "",
          "type": "string"
        }
      ],
      "name": "animeUpvoteMapping",
      "outputs": [
        {
          "internalType": "uint256",
          "name": "",
          "type": "uint256"
        }
      ],
      "stateMutability": "view",
      "type": "function"
    },
    {
      "inputs": [],
      "name": "getAllUpvotesCount",
      "outputs": [
        {
          "internalType": "uint256",
          "name": "",
          "type": "uint256"
        }
      ],
      "stateMutability": "view",
      "type": "function"
    },
    {
      "inputs": [
        {
          "internalType": "address",
          "name": "",
          "type": "address"
        }
      ],
      "name": "lastUpvoted",
      "outputs": [
        {
          "internalType": "uint256",
          "name": "",
          "type": "uint256"
        }
      ],
      "stateMutability": "view",
      "type": "function"
    },
    {
      "inputs": [
        {
          "internalType": "string",
          "name": "_animeId",
          "type": "string"
        }
      ],
      "name": "upvoteAnime",
      "outputs": [],
      "stateMutability": "nonpayable",
      "type": "function"
    },
    {
      "inputs": [
        {
          "internalType": "address",
          "name": "",
          "type": "address"
        }
      ],
      "name": "upvoteCounter",
      "outputs": [
        {
          "internalType": "uint256",
          "name": "",
          "type": "uint256"
        }
      ],
      "stateMutability": "view",
      "type": "function"
    }
  ],
  "bytecode": "0x60806040526200003360405180606001604052806025815260200162001396602591396200005b60201b620005631760201c565b6064444262000043919062000160565b6200004f9190620001ca565b600081905550620002c0565b620000fb816040516024016200007291906200029c565b6040516020818303038152906040527f41304fac000000000000000000000000000000000000000000000000000000007bffffffffffffffffffffffffffffffffffffffffffffffffffffffff19166020820180517bffffffffffffffffffffffffffffffffffffffffffffffffffffffff8381831617835250505050620000fe60201b60201c565b50565b60008151905060006a636f6e736f6c652e6c6f679050602083016000808483855afa5050505050565b6000819050919050565b7f4e487b7100000000000000000000000000000000000000000000000000000000600052601160045260246000fd5b60006200016d8262000127565b91506200017a8362000127565b925082820190508082111562000195576200019462000131565b5b92915050565b7f4e487b7100000000000000000000000000000000000000000000000000000000600052601260045260246000fd5b6000620001d78262000127565b9150620001e48362000127565b925082620001f757620001f66200019b565b5b828206905092915050565b600081519050919050565b600082825260208201905092915050565b60005b838110156200023e57808201518184015260208101905062000221565b60008484015250505050565b6000601f19601f8301169050919050565b6000620002688262000202565b6200027481856200020d565b9350620002868185602086016200021e565b62000291816200024a565b840191505092915050565b60006020820190508181036000830152620002b881846200025b565b905092915050565b6110c680620002d06000396000f3fe608060405234801561001057600080fd5b50600436106100575760003560e01c80631fd461ae1461005c5780635afb655c1461008c578063863bdec7146100a8578063a0e22603146100d8578063bd489fb5146100f6575b600080fd5b610076600480360381019061007191906108b7565b610126565b6040516100839190610919565b60405180910390f35b6100a660048036038101906100a191906108b7565b610154565b005b6100c260048036038101906100bd9190610992565b610529565b6040516100cf9190610919565b60405180910390f35b6100e0610541565b6040516100ed9190610919565b60405180910390f35b610110600480360381019061010b9190610992565b61054b565b60405161011d9190610919565b60405180910390f35b6004818051602081018201805184825260208301602085012081835280955050505050506000915090505481565b600180600082825461016691906109ee565b92505081905550600160048260405161017f9190610a93565b908152602001604051809103902081905550600560405180608001604052808381526020016004846040516101b49190610a93565b90815260200160405180910390205481526020013373ffffffffffffffffffffffffffffffffffffffff16815260200142815250908060018154018082558091505060019003906000526020600020906004020160009091909190915060008201518160000190816102269190610cb6565b506020820151816001015560408201518160020160006101000a81548173ffffffffffffffffffffffffffffffffffffffff021916908373ffffffffffffffffffffffffffffffffffffffff1602179055506060820151816003015550506064600054424461029591906109ee565b61029f91906109ee565b6102a99190610db7565b6000819055506102f06040518060400160405280601681526020017f52616e646f6d20232067656e6572617465643a202564000000000000000000008152506000546105fc565b603260005411156104775761031c60405180606001604052806025815260200161104660259139610563565b6000655af3107a40009050478110610369576040517f08c379a000000000000000000000000000000000000000000000000000000000815260040161036090610e6b565b60405180910390fd5b61038a60405180606001604052806026815260200161106b60269139610563565b60003373ffffffffffffffffffffffffffffffffffffffff16826040516103b090610ebc565b60006040518083038185875af1925050503d80600081146103ed576040519150601f19603f3d011682016040523d82523d6000602084013e6103f2565b606091505b5050905080610436576040517f08c379a000000000000000000000000000000000000000000000000000000000815260040161042d90610f1d565b60405180910390fd5b6104746040518060400160405280601781526020017f5072697a652073656e74207375636365737366756c6c79000000000000000000815250610563565b50505b6104b66040518060400160405280601a81526020017f257320686173207570766f7465642061206e657720616e696d6500000000000081525033610698565b3373ffffffffffffffffffffffffffffffffffffffff167fefa69bf3714764eac631c72450082eb6614c17850d5c3b9d5ea8e6ac1934bdbe826004846040516104ff9190610a93565b9081526020016040518091039020544260405161051e93929190610f76565b60405180910390a250565b60026020528060005260406000206000915090505481565b6000600154905090565b60036020528060005260406000206000915090505481565b6105f9816040516024016105779190610fb4565b6040516020818303038152906040527f41304fac000000000000000000000000000000000000000000000000000000007bffffffffffffffffffffffffffffffffffffffffffffffffffffffff19166020820180517bffffffffffffffffffffffffffffffffffffffffffffffffffffffff8381831617835250505050610734565b50565b6106948282604051602401610612929190610fd6565b6040516020818303038152906040527fb60e72cc000000000000000000000000000000000000000000000000000000007bffffffffffffffffffffffffffffffffffffffffffffffffffffffff19166020820180517bffffffffffffffffffffffffffffffffffffffffffffffffffffffff8381831617835250505050610734565b5050565b61073082826040516024016106ae929190611015565b6040516020818303038152906040527f319af333000000000000000000000000000000000000000000000000000000007bffffffffffffffffffffffffffffffffffffffffffffffffffffffff19166020820180517bffffffffffffffffffffffffffffffffffffffffffffffffffffffff8381831617835250505050610734565b5050565b60008151905060006a636f6e736f6c652e6c6f679050602083016000808483855afa5050505050565b6000604051905090565b600080fd5b600080fd5b600080fd5b600080fd5b6000601f19601f8301169050919050565b7f4e487b7100000000000000000000000000000000000000000000000000000000600052604160045260246000fd5b6107c48261077b565b810181811067ffffffffffffffff821117156107e3576107e261078c565b5b80604052505050565b60006107f661075d565b905061080282826107bb565b919050565b600067ffffffffffffffff8211156108225761082161078c565b5b61082b8261077b565b9050602081019050919050565b82818337600083830152505050565b600061085a61085584610807565b6107ec565b90508281526020810184848401111561087657610875610776565b5b610881848285610838565b509392505050565b600082601f83011261089e5761089d610771565b5b81356108ae848260208601610847565b91505092915050565b6000602082840312156108cd576108cc610767565b5b600082013567ffffffffffffffff8111156108eb576108ea61076c565b5b6108f784828501610889565b91505092915050565b6000819050919050565b61091381610900565b82525050565b600060208201905061092e600083018461090a565b92915050565b600073ffffffffffffffffffffffffffffffffffffffff82169050919050565b600061095f82610934565b9050919050565b61096f81610954565b811461097a57600080fd5b50565b60008135905061098c81610966565b92915050565b6000602082840312156109a8576109a7610767565b5b60006109b68482850161097d565b91505092915050565b7f4e487b7100000000000000000000000000000000000000000000000000000000600052601160045260246000fd5b60006109f982610900565b9150610a0483610900565b9250828201905080821115610a1c57610a1b6109bf565b5b92915050565b600081519050919050565b600081905092915050565b60005b83811015610a56578082015181840152602081019050610a3b565b60008484015250505050565b6000610a6d82610a22565b610a778185610a2d565b9350610a87818560208601610a38565b80840191505092915050565b6000610a9f8284610a62565b915081905092915050565b7f4e487b7100000000000000000000000000000000000000000000000000000000600052602260045260246000fd5b60006002820490506001821680610af157607f821691505b602082108103610b0457610b03610aaa565b5b50919050565b60008190508160005260206000209050919050565b60006020601f8301049050919050565b600082821b905092915050565b600060088302610b6c7fffffffffffffffffffffffffffffffffffffffffffffffffffffffffffffffff82610b2f565b610b768683610b2f565b95508019841693508086168417925050509392505050565b6000819050919050565b6000610bb3610bae610ba984610900565b610b8e565b610900565b9050919050565b6000819050919050565b610bcd83610b98565b610be1610bd982610bba565b848454610b3c565b825550505050565b600090565b610bf6610be9565b610c01818484610bc4565b505050565b5b81811015610c2557610c1a600082610bee565b600181019050610c07565b5050565b601f821115610c6a57610c3b81610b0a565b610c4484610b1f565b81016020851015610c53578190505b610c67610c5f85610b1f565b830182610c06565b50505b505050565b600082821c905092915050565b6000610c8d60001984600802610c6f565b1980831691505092915050565b6000610ca68383610c7c565b9150826002028217905092915050565b610cbf82610a22565b67ffffffffffffffff811115610cd857610cd761078c565b5b610ce28254610ad9565b610ced828285610c29565b600060209050601f831160018114610d205760008415610d0e578287015190505b610d188582610c9a565b865550610d80565b601f198416610d2e86610b0a565b60005b82811015610d5657848901518255600182019150602085019450602081019050610d31565b86831015610d735784890151610d6f601f891682610c7c565b8355505b6001600288020188555050505b505050505050565b7f4e487b7100000000000000000000000000000000000000000000000000000000600052601260045260246000fd5b6000610dc282610900565b9150610dcd83610900565b925082610ddd57610ddc610d88565b5b828206905092915050565b600082825260208201905092915050565b7f63616e7427207769746864726177206d6f7265207468616e207468652062616c60008201527f616e636500000000000000000000000000000000000000000000000000000000602082015250565b6000610e55602483610de8565b9150610e6082610df9565b604082019050919050565b60006020820190508181036000830152610e8481610e48565b9050919050565b600081905092915050565b50565b6000610ea6600083610e8b565b9150610eb182610e96565b600082019050919050565b6000610ec782610e99565b9150819050919050565b7f74786e206661696c656420666f7220736f6d6520726561736f6e732e2e2e0000600082015250565b6000610f07601e83610de8565b9150610f1282610ed1565b602082019050919050565b60006020820190508181036000830152610f3681610efa565b9050919050565b6000610f4882610a22565b610f528185610de8565b9350610f62818560208601610a38565b610f6b8161077b565b840191505092915050565b60006060820190508181036000830152610f908186610f3d565b9050610f9f602083018561090a565b610fac604083018461090a565b949350505050565b60006020820190508181036000830152610fce8184610f3d565b905092915050565b60006040820190508181036000830152610ff08185610f3d565b9050610fff602083018461090a565b9392505050565b61100f81610954565b82525050565b6000604082019050818103600083015261102f8185610f3d565b905061103e6020830184611006565b939250505056fe456c696769626c6520666f722061207072697a65206f6620302e30303031204554482e2e2e42616c616e63652069732073756666696369656e7420666f72207072697a6520616d6f756e74a26469706673582212200f91fe96e7984dadbe85a0fbc7c2f871932cdd076fc7cf8350b0e54c2bef900a64736f6c63430008110033596f20796f2c204920616d206120636f6e747261637420616e64204920616d20736d617274",
  "linkReferences": {},
  "deployedLinkReferences": {}
}