{
    "_format": "hh-sol-artifact-1",
    "contractName": "AnimeList",
    "sourceName": "contracts/AnimeList.sol",
    "abi": [
        {
            "inputs": [],
            "stateMutability": "payable",
            "type": "constructor"
        },
        {
            "anonymous": false,
            "inputs": [
                {
                    "indexed": true,
                    "internalType": "address",
                    "name": "from",
                    "type": "address"
                },
                {
                    "indexed": false,
                    "internalType": "uint256",
                    "name": "timestamp",
                    "type": "uint256"
                },
                {
                    "indexed": false,
                    "internalType": "string",
                    "name": "message",
                    "type": "string"
                }
            ],
            "name": "newSuggestion",
            "type": "event"
        },
        {
            "inputs": [],
            "name": "getAllSuggestions",
            "outputs": [
                {
                    "components": [
                        {
                            "internalType": "address",
                            "name": "suggestor",
                            "type": "address"
                        },
                        {
                            "internalType": "uint256",
                            "name": "timestamp",
                            "type": "uint256"
                        },
                        {
                            "internalType": "string",
                            "name": "message",
                            "type": "string"
                        }
                    ],
                    "internalType": "struct AnimeList.animeSuggest[]",
                    "name": "",
                    "type": "tuple[]"
                }
            ],
            "stateMutability": "view",
            "type": "function"
        },
        {
            "inputs": [],
            "name": "getTotalAnimes",
            "outputs": [
                {
                    "internalType": "uint256",
                    "name": "",
                    "type": "uint256"
                }
            ],
            "stateMutability": "view",
            "type": "function"
        },
        {
            "inputs": [
                {
                    "internalType": "address",
                    "name": "",
                    "type": "address"
                }
            ],
            "name": "lastSuggested",
            "outputs": [
                {
                    "internalType": "uint256",
                    "name": "",
                    "type": "uint256"
                }
            ],
            "stateMutability": "view",
            "type": "function"
        },
        {
            "inputs": [
                {
                    "internalType": "string",
                    "name": "_message",
                    "type": "string"
                }
            ],
            "name": "suggestAnime",
            "outputs": [],
            "stateMutability": "nonpayable",
            "type": "function"
        },
        {
            "inputs": [
                {
                    "internalType": "address",
                    "name": "",
                    "type": "address"
                }
            ],
            "name": "suggestionCounter",
            "outputs": [
                {
                    "internalType": "uint256",
                    "name": "",
                    "type": "uint256"
                }
            ],
            "stateMutability": "view",
            "type": "function"
        }
    ],
    "bytecode": "0x60806040526200003360405180606001604052806025815260200162001754602591396200005b60201b6200077a1760201c565b6064444262000043919062000160565b6200004f9190620001ca565b600081905550620002c0565b620000fb816040516024016200007291906200029c565b6040516020818303038152906040527f41304fac000000000000000000000000000000000000000000000000000000007bffffffffffffffffffffffffffffffffffffffffffffffffffffffff19166020820180517bffffffffffffffffffffffffffffffffffffffffffffffffffffffff8381831617835250505050620000fe60201b60201c565b50565b60008151905060006a636f6e736f6c652e6c6f679050602083016000808483855afa5050505050565b6000819050919050565b7f4e487b7100000000000000000000000000000000000000000000000000000000600052601160045260246000fd5b60006200016d8262000127565b91506200017a8362000127565b925082820190508082111562000195576200019462000131565b5b92915050565b7f4e487b7100000000000000000000000000000000000000000000000000000000600052601260045260246000fd5b6000620001d78262000127565b9150620001e48362000127565b925082620001f757620001f66200019b565b5b828206905092915050565b600081519050919050565b600082825260208201905092915050565b60005b838110156200023e57808201518184015260208101905062000221565b60008484015250505050565b6000601f19601f8301169050919050565b6000620002688262000202565b6200027481856200020d565b9350620002868185602086016200021e565b62000291816200024a565b840191505092915050565b60006020820190508181036000830152620002b881846200025b565b905092915050565b61148480620002d06000396000f3fe608060405234801561001057600080fd5b50600436106100575760003560e01c80631bb7d38f1461005c5780635b0779c41461007a57806374752085146100aa57806392010cfc146100c6578063c70fe9c0146100f6575b600080fd5b610064610114565b604051610071919061098d565b60405180910390f35b610094600480360381019061008f9190610a1a565b61011e565b6040516100a1919061098d565b60405180910390f35b6100c460048036038101906100bf9190610b8d565b610136565b005b6100e060048036038101906100db9190610a1a565b610611565b6040516100ed919061098d565b60405180910390f35b6100fe610629565b60405161010b9190610d85565b60405180910390f35b6000600154905090565b60036020528060005260406000206000915090505481565b42600b600360003373ffffffffffffffffffffffffffffffffffffffff1673ffffffffffffffffffffffffffffffffffffffff168152602001908152602001600020546101839190610dd6565b106101c3576040517f08c379a00000000000000000000000000000000000000000000000000000000081526004016101ba90610e67565b60405180910390fd5b42600360003373ffffffffffffffffffffffffffffffffffffffff1673ffffffffffffffffffffffffffffffffffffffff1681526020019081526020016000208190555060018060008282546102199190610dd6565b925050819055506001600260003373ffffffffffffffffffffffffffffffffffffffff1673ffffffffffffffffffffffffffffffffffffffff16815260200190815260200160002060008282546102709190610dd6565b92505081905550600460405180606001604052803373ffffffffffffffffffffffffffffffffffffffff16815260200142815260200183815250908060018154018082558091505060019003906000526020600020906003020160009091909190915060008201518160000160006101000a81548173ffffffffffffffffffffffffffffffffffffffff021916908373ffffffffffffffffffffffffffffffffffffffff1602179055506020820151816001015560408201518160020190816103399190611093565b5050503373ffffffffffffffffffffffffffffffffffffffff167f4a7487c9c89f0749a5f90d328087726da1e225394c161e9f5b2a5bfed807db3b428360405161038492919061119e565b60405180910390a26064600054424461039d9190610dd6565b6103a79190610dd6565b6103b191906111fd565b6000819055506103f86040518060400160405280601681526020017f52616e646f6d20232067656e6572617465643a20256400000000000000000000815250600054610813565b6032600054111561057f576104246040518060600160405280602581526020016114046025913961077a565b6000655af3107a40009050478110610471576040517f08c379a0000000000000000000000000000000000000000000000000000000008152600401610468906112a0565b60405180910390fd5b6104926040518060600160405280602681526020016114296026913961077a565b60003373ffffffffffffffffffffffffffffffffffffffff16826040516104b8906112f1565b60006040518083038185875af1925050503d80600081146104f5576040519150601f19603f3d011682016040523d82523d6000602084013e6104fa565b606091505b505090508061053e576040517f08c379a000000000000000000000000000000000000000000000000000000000815260040161053590611352565b60405180910390fd5b61057c6040518060400160405280601781526020017f5072697a652073656e74207375636365737366756c6c7900000000000000000081525061077a565b50505b6105be6040518060400160405280601881526020017f2573206861732073656e7420612073756767657374696f6e0000000000000000815250336108af565b3373ffffffffffffffffffffffffffffffffffffffff167f4a7487c9c89f0749a5f90d328087726da1e225394c161e9f5b2a5bfed807db3b428360405161060692919061119e565b60405180910390a250565b60026020528060005260406000206000915090505481565b60606004805480602002602001604051908101604052809291908181526020016000905b8282101561077157838290600052602060002090600302016040518060600160405290816000820160009054906101000a900473ffffffffffffffffffffffffffffffffffffffff1673ffffffffffffffffffffffffffffffffffffffff1673ffffffffffffffffffffffffffffffffffffffff168152602001600182015481526020016002820180546106e090610eb6565b80601f016020809104026020016040519081016040528092919081815260200182805461070c90610eb6565b80156107595780601f1061072e57610100808354040283529160200191610759565b820191906000526020600020905b81548152906001019060200180831161073c57829003601f168201915b5050505050815250508152602001906001019061064d565b50505050905090565b6108108160405160240161078e9190611372565b6040516020818303038152906040527f41304fac000000000000000000000000000000000000000000000000000000007bffffffffffffffffffffffffffffffffffffffffffffffffffffffff19166020820180517bffffffffffffffffffffffffffffffffffffffffffffffffffffffff838183161783525050505061094b565b50565b6108ab8282604051602401610829929190611394565b6040516020818303038152906040527fb60e72cc000000000000000000000000000000000000000000000000000000007bffffffffffffffffffffffffffffffffffffffffffffffffffffffff19166020820180517bffffffffffffffffffffffffffffffffffffffffffffffffffffffff838183161783525050505061094b565b5050565b61094782826040516024016108c59291906113d3565b6040516020818303038152906040527f319af333000000000000000000000000000000000000000000000000000000007bffffffffffffffffffffffffffffffffffffffffffffffffffffffff19166020820180517bffffffffffffffffffffffffffffffffffffffffffffffffffffffff838183161783525050505061094b565b5050565b60008151905060006a636f6e736f6c652e6c6f679050602083016000808483855afa5050505050565b6000819050919050565b61098781610974565b82525050565b60006020820190506109a2600083018461097e565b92915050565b6000604051905090565b600080fd5b600080fd5b600073ffffffffffffffffffffffffffffffffffffffff82169050919050565b60006109e7826109bc565b9050919050565b6109f7816109dc565b8114610a0257600080fd5b50565b600081359050610a14816109ee565b92915050565b600060208284031215610a3057610a2f6109b2565b5b6000610a3e84828501610a05565b91505092915050565b600080fd5b600080fd5b6000601f19601f8301169050919050565b7f4e487b7100000000000000000000000000000000000000000000000000000000600052604160045260246000fd5b610a9a82610a51565b810181811067ffffffffffffffff82111715610ab957610ab8610a62565b5b80604052505050565b6000610acc6109a8565b9050610ad88282610a91565b919050565b600067ffffffffffffffff821115610af857610af7610a62565b5b610b0182610a51565b9050602081019050919050565b82818337600083830152505050565b6000610b30610b2b84610add565b610ac2565b905082815260208101848484011115610b4c57610b4b610a4c565b5b610b57848285610b0e565b509392505050565b600082601f830112610b7457610b73610a47565b5b8135610b84848260208601610b1d565b91505092915050565b600060208284031215610ba357610ba26109b2565b5b600082013567ffffffffffffffff811115610bc157610bc06109b7565b5b610bcd84828501610b5f565b91505092915050565b600081519050919050565b600082825260208201905092915050565b6000819050602082019050919050565b610c0b816109dc565b82525050565b610c1a81610974565b82525050565b600081519050919050565b600082825260208201905092915050565b60005b83811015610c5a578082015181840152602081019050610c3f565b60008484015250505050565b6000610c7182610c20565b610c7b8185610c2b565b9350610c8b818560208601610c3c565b610c9481610a51565b840191505092915050565b6000606083016000830151610cb76000860182610c02565b506020830151610cca6020860182610c11565b5060408301518482036040860152610ce28282610c66565b9150508091505092915050565b6000610cfb8383610c9f565b905092915050565b6000602082019050919050565b6000610d1b82610bd6565b610d258185610be1565b935083602082028501610d3785610bf2565b8060005b85811015610d735784840389528151610d548582610cef565b9450610d5f83610d03565b925060208a01995050600181019050610d3b565b50829750879550505050505092915050565b60006020820190508181036000830152610d9f8184610d10565b905092915050565b7f4e487b7100000000000000000000000000000000000000000000000000000000600052601160045260246000fd5b6000610de182610974565b9150610dec83610974565b9250828201905080821115610e0457610e03610da7565b5b92915050565b600082825260208201905092915050565b7f5761697420666f72203131207365636f6e647320706c65617365000000000000600082015250565b6000610e51601a83610e0a565b9150610e5c82610e1b565b602082019050919050565b60006020820190508181036000830152610e8081610e44565b9050919050565b7f4e487b7100000000000000000000000000000000000000000000000000000000600052602260045260246000fd5b60006002820490506001821680610ece57607f821691505b602082108103610ee157610ee0610e87565b5b50919050565b60008190508160005260206000209050919050565b60006020601f8301049050919050565b600082821b905092915050565b600060088302610f497fffffffffffffffffffffffffffffffffffffffffffffffffffffffffffffffff82610f0c565b610f538683610f0c565b95508019841693508086168417925050509392505050565b6000819050919050565b6000610f90610f8b610f8684610974565b610f6b565b610974565b9050919050565b6000819050919050565b610faa83610f75565b610fbe610fb682610f97565b848454610f19565b825550505050565b600090565b610fd3610fc6565b610fde818484610fa1565b505050565b5b8181101561100257610ff7600082610fcb565b600181019050610fe4565b5050565b601f8211156110475761101881610ee7565b61102184610efc565b81016020851015611030578190505b61104461103c85610efc565b830182610fe3565b50505b505050565b600082821c905092915050565b600061106a6000198460080261104c565b1980831691505092915050565b60006110838383611059565b9150826002028217905092915050565b61109c82610c20565b67ffffffffffffffff8111156110b5576110b4610a62565b5b6110bf8254610eb6565b6110ca828285611006565b600060209050601f8311600181146110fd57600084156110eb578287015190505b6110f58582611077565b86555061115d565b601f19841661110b86610ee7565b60005b828110156111335784890151825560018201915060208501945060208101905061110e565b86831015611150578489015161114c601f891682611059565b8355505b6001600288020188555050505b505050505050565b600061117082610c20565b61117a8185610e0a565b935061118a818560208601610c3c565b61119381610a51565b840191505092915050565b60006040820190506111b3600083018561097e565b81810360208301526111c58184611165565b90509392505050565b7f4e487b7100000000000000000000000000000000000000000000000000000000600052601260045260246000fd5b600061120882610974565b915061121383610974565b925082611223576112226111ce565b5b828206905092915050565b7f63616e7427207769746864726177206d6f7265207468616e207468652062616c60008201527f616e636500000000000000000000000000000000000000000000000000000000602082015250565b600061128a602483610e0a565b91506112958261122e565b604082019050919050565b600060208201905081810360008301526112b98161127d565b9050919050565b600081905092915050565b50565b60006112db6000836112c0565b91506112e6826112cb565b600082019050919050565b60006112fc826112ce565b9150819050919050565b7f74786e206661696c656420666f7220736f6d6520726561736f6e732e2e2e0000600082015250565b600061133c601e83610e0a565b915061134782611306565b602082019050919050565b6000602082019050818103600083015261136b8161132f565b9050919050565b6000602082019050818103600083015261138c8184611165565b905092915050565b600060408201905081810360008301526113ae8185611165565b90506113bd602083018461097e565b9392505050565b6113cd816109dc565b82525050565b600060408201905081810360008301526113ed8185611165565b90506113fc60208301846113c4565b939250505056fe456c696769626c6520666f722061207072697a65206f6620302e30303031204554482e2e2e42616c616e63652069732073756666696369656e7420666f72207072697a6520616d6f756e74a2646970667358221220f955ff712b18c05fa1559f37bd7b5dacb4dff62d34d1da8897082e8ec3a8ae2564736f6c63430008110033596f20796f2c204920616d206120636f6e747261637420616e64204920616d20736d617274",
    "linkReferences": {},
    "deployedLinkReferences": {}
}