{
  "_format": "hh-sol-artifact-1",
  "contractName": "Anime3",
  "sourceName": "contracts/Anime3.sol",
  "abi": [
    {
      "inputs": [],
      "stateMutability": "payable",
      "type": "constructor"
    },
    {
      "anonymous": false,
      "inputs": [
        {
          "indexed": false,
          "internalType": "string",
          "name": "animeId",
          "type": "string"
        },
        {
          "indexed": false,
          "internalType": "string",
          "name": "animeTitle",
          "type": "string"
        },
        {
          "indexed": false,
          "internalType": "string",
          "name": "animeImg",
          "type": "string"
        },
        {
          "indexed": false,
          "internalType": "string",
          "name": "animeUrl",
          "type": "string"
        },
        {
          "indexed": false,
          "internalType": "uint256",
          "name": "upvoteCount",
          "type": "uint256"
        },
        {
          "indexed": true,
          "internalType": "address",
          "name": "from",
          "type": "address"
        },
        {
          "indexed": false,
          "internalType": "uint256",
          "name": "timestamp",
          "type": "uint256"
        }
      ],
      "name": "newUpvote",
      "type": "event"
    },
    {
      "inputs": [
        {
          "internalType": "string",
          "name": "",
          "type": "string"
        }
      ],
      "name": "animeUpvoteMapping",
      "outputs": [
        {
          "internalType": "uint256",
          "name": "",
          "type": "uint256"
        }
      ],
      "stateMutability": "view",
      "type": "function"
    },
    {
      "inputs": [],
      "name": "getAllUpvotes",
      "outputs": [
        {
          "components": [
            {
              "internalType": "string",
              "name": "animeId",
              "type": "string"
            },
            {
              "internalType": "string",
              "name": "animeTitle",
              "type": "string"
            },
            {
              "internalType": "string",
              "name": "animeImg",
              "type": "string"
            },
            {
              "internalType": "string",
              "name": "animeUrl",
              "type": "string"
            },
            {
              "internalType": "uint256",
              "name": "upvoteCount",
              "type": "uint256"
            },
            {
              "internalType": "address",
              "name": "upvoter",
              "type": "address"
            },
            {
              "internalType": "uint256",
              "name": "timestamp",
              "type": "uint256"
            }
          ],
          "internalType": "struct Anime3.animeUpvoteStruct[]",
          "name": "",
          "type": "tuple[]"
        }
      ],
      "stateMutability": "view",
      "type": "function"
    },
    {
      "inputs": [],
      "name": "getAllUpvotesCount",
      "outputs": [
        {
          "internalType": "uint256",
          "name": "",
          "type": "uint256"
        }
      ],
      "stateMutability": "view",
      "type": "function"
    },
    {
      "inputs": [],
      "name": "getAnimeIds",
      "outputs": [
        {
          "internalType": "string[]",
          "name": "",
          "type": "string[]"
        }
      ],
      "stateMutability": "view",
      "type": "function"
    },
    {
      "inputs": [
        {
          "internalType": "address",
          "name": "",
          "type": "address"
        }
      ],
      "name": "lastUpvoted",
      "outputs": [
        {
          "internalType": "uint256",
          "name": "",
          "type": "uint256"
        }
      ],
      "stateMutability": "view",
      "type": "function"
    },
    {
      "inputs": [
        {
          "internalType": "string",
          "name": "_animeId",
          "type": "string"
        },
        {
          "internalType": "string",
          "name": "_animeTitle",
          "type": "string"
        },
        {
          "internalType": "string",
          "name": "_animeImg",
          "type": "string"
        },
        {
          "internalType": "string",
          "name": "_animeUrl",
          "type": "string"
        }
      ],
      "name": "upvoteAnime",
      "outputs": [],
      "stateMutability": "nonpayable",
      "type": "function"
    }
  ],
  "bytecode": "0x608060405262000033604051806060016040528060258152602001620016a3602591396200005b60201b6200080f1760201c565b6064444262000043919062000160565b6200004f9190620001ca565b600081905550620002c0565b620000fb816040516024016200007291906200029c565b6040516020818303038152906040527f41304fac000000000000000000000000000000000000000000000000000000007bffffffffffffffffffffffffffffffffffffffffffffffffffffffff19166020820180517bffffffffffffffffffffffffffffffffffffffffffffffffffffffff8381831617835250505050620000fe60201b60201c565b50565b60008151905060006a636f6e736f6c652e6c6f679050602083016000808483855afa5050505050565b6000819050919050565b7f4e487b7100000000000000000000000000000000000000000000000000000000600052601160045260246000fd5b60006200016d8262000127565b91506200017a8362000127565b925082820190508082111562000195576200019462000131565b5b92915050565b7f4e487b7100000000000000000000000000000000000000000000000000000000600052601260045260246000fd5b6000620001d78262000127565b9150620001e48362000127565b925082620001f757620001f66200019b565b5b828206905092915050565b600081519050919050565b600082825260208201905092915050565b60005b838110156200023e57808201518184015260208101905062000221565b60008484015250505050565b6000601f19601f8301169050919050565b6000620002688262000202565b6200027481856200020d565b9350620002868185602086016200021e565b62000291816200024a565b840191505092915050565b60006020820190508181036000830152620002b881846200025b565b905092915050565b6113d380620002d06000396000f3fe608060405234801561001057600080fd5b50600436106100625760003560e01c806313d5e6c4146100675780631fd461ae14610085578063a0e22603146100b5578063a4ef0bcc146100d3578063bd489fb5146100f1578063f5c5d4d114610121575b600080fd5b61006f61013d565b60405161007c9190610a23565b60405180910390f35b61009f600480360381019061009a9190610b8e565b610216565b6040516100ac9190610bf0565b60405180910390f35b6100bd610244565b6040516100ca9190610bf0565b60405180910390f35b6100db61024e565b6040516100e89190610dce565b60405180910390f35b61010b60048036038101906101069190610e1c565b61055f565b6040516101189190610bf0565b60405180910390f35b61013b60048036038101906101369190610e49565b610577565b005b60606004805480602002602001604051908101604052809291908181526020016000905b8282101561020d57838290600052602060002001805461018090610f4f565b80601f01602080910402602001604051908101604052809291908181526020018280546101ac90610f4f565b80156101f95780601f106101ce576101008083540402835291602001916101f9565b820191906000526020600020905b8154815290600101906020018083116101dc57829003601f168201915b505050505081526020019060010190610161565b50505050905090565b6003818051602081018201805184825260208301602085012081835280955050505050506000915090505481565b6000600154905090565b60606005805480602002602001604051908101604052809291908181526020016000905b8282101561055657838290600052602060002090600702016040518060e00160405290816000820180546102a590610f4f565b80601f01602080910402602001604051908101604052809291908181526020018280546102d190610f4f565b801561031e5780601f106102f35761010080835404028352916020019161031e565b820191906000526020600020905b81548152906001019060200180831161030157829003601f168201915b5050505050815260200160018201805461033790610f4f565b80601f016020809104026020016040519081016040528092919081815260200182805461036390610f4f565b80156103b05780601f10610385576101008083540402835291602001916103b0565b820191906000526020600020905b81548152906001019060200180831161039357829003601f168201915b505050505081526020016002820180546103c990610f4f565b80601f01602080910402602001604051908101604052809291908181526020018280546103f590610f4f565b80156104425780601f1061041757610100808354040283529160200191610442565b820191906000526020600020905b81548152906001019060200180831161042557829003601f168201915b5050505050815260200160038201805461045b90610f4f565b80601f016020809104026020016040519081016040528092919081815260200182805461048790610f4f565b80156104d45780601f106104a9576101008083540402835291602001916104d4565b820191906000526020600020905b8154815290600101906020018083116104b757829003601f168201915b50505050508152602001600482015481526020016005820160009054906101000a900473ffffffffffffffffffffffffffffffffffffffff1673ffffffffffffffffffffffffffffffffffffffff1673ffffffffffffffffffffffffffffffffffffffff16815260200160068201548152505081526020019060010190610272565b50505050905090565b60026020528060005260406000206000915090505481565b60018060008282546105899190610faf565b9250508190555060006003856040516105a2919061101f565b90815260200160405180910390205411156105f25760016003856040516105c9919061101f565b908152602001604051809103902060008282546105e69190610faf565b9250508190555061064c565b6001600385604051610604919061101f565b90815260200160405180910390208190555060048490806001815401808255809150506001900390600052602060002001600090919091909150908161064a91906111e2565b505b60056040518060e00160405280868152602001858152602001848152602001838152602001600387604051610681919061101f565b90815260200160405180910390205481526020013373ffffffffffffffffffffffffffffffffffffffff16815260200142815250908060018154018082558091505060019003906000526020600020906007020160009091909190915060008201518160000190816106f391906111e2565b50602082015181600101908161070991906111e2565b50604082015181600201908161071f91906111e2565b50606082015181600301908161073591906111e2565b506080820151816004015560a08201518160050160006101000a81548173ffffffffffffffffffffffffffffffffffffffff021916908373ffffffffffffffffffffffffffffffffffffffff16021790555060c0820151816006015550503373ffffffffffffffffffffffffffffffffffffffff167ffa09aad6c4846e2edb789734299c48c49dd921afb27a5d647923516dd5251ca58585858560038a6040516107df919061101f565b90815260200160405180910390205442604051610801969594939291906112fe565b60405180910390a250505050565b6108a581604051602401610823919061137b565b6040516020818303038152906040527f41304fac000000000000000000000000000000000000000000000000000000007bffffffffffffffffffffffffffffffffffffffffffffffffffffffff19166020820180517bffffffffffffffffffffffffffffffffffffffffffffffffffffffff83818316178352505050506108a8565b50565b60008151905060006a636f6e736f6c652e6c6f679050602083016000808483855afa5050505050565b600081519050919050565b600082825260208201905092915050565b6000819050602082019050919050565b600081519050919050565b600082825260208201905092915050565b60005b8381101561093757808201518184015260208101905061091c565b60008484015250505050565b6000601f19601f8301169050919050565b600061095f826108fd565b6109698185610908565b9350610979818560208601610919565b61098281610943565b840191505092915050565b60006109998383610954565b905092915050565b6000602082019050919050565b60006109b9826108d1565b6109c381856108dc565b9350836020820285016109d5856108ed565b8060005b85811015610a1157848403895281516109f2858261098d565b94506109fd836109a1565b925060208a019950506001810190506109d9565b50829750879550505050505092915050565b60006020820190508181036000830152610a3d81846109ae565b905092915050565b6000604051905090565b600080fd5b600080fd5b600080fd5b600080fd5b7f4e487b7100000000000000000000000000000000000000000000000000000000600052604160045260246000fd5b610a9b82610943565b810181811067ffffffffffffffff82111715610aba57610ab9610a63565b5b80604052505050565b6000610acd610a45565b9050610ad98282610a92565b919050565b600067ffffffffffffffff821115610af957610af8610a63565b5b610b0282610943565b9050602081019050919050565b82818337600083830152505050565b6000610b31610b2c84610ade565b610ac3565b905082815260208101848484011115610b4d57610b4c610a5e565b5b610b58848285610b0f565b509392505050565b600082601f830112610b7557610b74610a59565b5b8135610b85848260208601610b1e565b91505092915050565b600060208284031215610ba457610ba3610a4f565b5b600082013567ffffffffffffffff811115610bc257610bc1610a54565b5b610bce84828501610b60565b91505092915050565b6000819050919050565b610bea81610bd7565b82525050565b6000602082019050610c056000830184610be1565b92915050565b600081519050919050565b600082825260208201905092915050565b6000819050602082019050919050565b610c4081610bd7565b82525050565b600073ffffffffffffffffffffffffffffffffffffffff82169050919050565b6000610c7182610c46565b9050919050565b610c8181610c66565b82525050565b600060e0830160008301518482036000860152610ca48282610954565b91505060208301518482036020860152610cbe8282610954565b91505060408301518482036040860152610cd88282610954565b91505060608301518482036060860152610cf28282610954565b9150506080830151610d076080860182610c37565b5060a0830151610d1a60a0860182610c78565b5060c0830151610d2d60c0860182610c37565b508091505092915050565b6000610d448383610c87565b905092915050565b6000602082019050919050565b6000610d6482610c0b565b610d6e8185610c16565b935083602082028501610d8085610c27565b8060005b85811015610dbc5784840389528151610d9d8582610d38565b9450610da883610d4c565b925060208a01995050600181019050610d84565b50829750879550505050505092915050565b60006020820190508181036000830152610de88184610d59565b905092915050565b610df981610c66565b8114610e0457600080fd5b50565b600081359050610e1681610df0565b92915050565b600060208284031215610e3257610e31610a4f565b5b6000610e4084828501610e07565b91505092915050565b60008060008060808587031215610e6357610e62610a4f565b5b600085013567ffffffffffffffff811115610e8157610e80610a54565b5b610e8d87828801610b60565b945050602085013567ffffffffffffffff811115610eae57610ead610a54565b5b610eba87828801610b60565b935050604085013567ffffffffffffffff811115610edb57610eda610a54565b5b610ee787828801610b60565b925050606085013567ffffffffffffffff811115610f0857610f07610a54565b5b610f1487828801610b60565b91505092959194509250565b7f4e487b7100000000000000000000000000000000000000000000000000000000600052602260045260246000fd5b60006002820490506001821680610f6757607f821691505b602082108103610f7a57610f79610f20565b5b50919050565b7f4e487b7100000000000000000000000000000000000000000000000000000000600052601160045260246000fd5b6000610fba82610bd7565b9150610fc583610bd7565b9250828201905080821115610fdd57610fdc610f80565b5b92915050565b600081905092915050565b6000610ff9826108fd565b6110038185610fe3565b9350611013818560208601610919565b80840191505092915050565b600061102b8284610fee565b915081905092915050565b60008190508160005260206000209050919050565b60006020601f8301049050919050565b600082821b905092915050565b6000600883026110987fffffffffffffffffffffffffffffffffffffffffffffffffffffffffffffffff8261105b565b6110a2868361105b565b95508019841693508086168417925050509392505050565b6000819050919050565b60006110df6110da6110d584610bd7565b6110ba565b610bd7565b9050919050565b6000819050919050565b6110f9836110c4565b61110d611105826110e6565b848454611068565b825550505050565b600090565b611122611115565b61112d8184846110f0565b505050565b5b818110156111515761114660008261111a565b600181019050611133565b5050565b601f8211156111965761116781611036565b6111708461104b565b8101602085101561117f578190505b61119361118b8561104b565b830182611132565b50505b505050565b600082821c905092915050565b60006111b96000198460080261119b565b1980831691505092915050565b60006111d283836111a8565b9150826002028217905092915050565b6111eb826108fd565b67ffffffffffffffff81111561120457611203610a63565b5b61120e8254610f4f565b611219828285611155565b600060209050601f83116001811461124c576000841561123a578287015190505b61124485826111c6565b8655506112ac565b601f19841661125a86611036565b60005b828110156112825784890151825560018201915060208501945060208101905061125d565b8683101561129f578489015161129b601f8916826111a8565b8355505b6001600288020188555050505b505050505050565b600082825260208201905092915050565b60006112d0826108fd565b6112da81856112b4565b93506112ea818560208601610919565b6112f381610943565b840191505092915050565b600060c082019050818103600083015261131881896112c5565b9050818103602083015261132c81886112c5565b9050818103604083015261134081876112c5565b9050818103606083015261135481866112c5565b90506113636080830185610be1565b61137060a0830184610be1565b979650505050505050565b6000602082019050818103600083015261139581846112c5565b90509291505056fea26469706673582212208c5862ca39817ae459ed05ec6a96b1034c63e41204d47816faec78af421be74064736f6c63430008110033596f20796f2c204920616d206120636f6e747261637420616e64204920616d20736d617274",
  "linkReferences": {},
  "deployedLinkReferences": {}
}